:0C0000000C94BB000C9464010C9486016D
:10000C000C9490010C9400000C9400000C940000D3
:10001C000C9400000C9400000C9400000C94000054
:10002C000C9400000C9400000C9400000C94000044
:10003C000C9400000C9400000C9400000C94000034
:10004C000C9400000C9400001027E80364000A00D4
:10005C000100001000011000010000000000000071
:10006C00000000003100320033003400350036004F
:10007C0037003800390030002A002300456E7465C3
:10008C00722050617373776F72643A00556E6C6FA7
:10009C00636B65640057726F6E67004E6577205016
:1000AC00617373776F72643A0050617373776F7218
:1000BC00642053617665640080C00A000400660009
:1000CC000200600270000200620272000200640210
:1000DC0074000200660276000200680278000200DA
:1000EC006A027A0002006C027C0002006E027E0042
:1000FC000200700280000200720282000200740290
:10010C00840002007602860010007802880002004B
:10011C008802700002008A02720002008C027400D5
:10012C0002008E0276000200900278000200920219
:10013C007A00020094027C00020096027E0002000B
:10014C009802800002009A02820009009C0298002A
:10015C000600A502A1000E00AB02A7000F00B90219
:10016C00B5000200CC02C4000000F894EE27ECBBF2
:10017C00F1E0F5BFE5BF8DE0A2E0BB27ED938A95DA
:10018C00E9F780E098E0A0E6ED930197E9F7E6EC5B
:10019C00F0E085919591009761F0A591B59105904E
:1001AC001590BF01F00105900D920197E1F7FB014D
:1001BC00F0CFEFE5EDBFE8E0EEBFC0E6D2E00C9487
:1001CC00A201E9B3E07FE03141F4A0E6B2E00E9485
:1001DC004F03E1E30E94850370C0E03241F4A2E6D4
:1001EC00B2E00E944F03E2E30E94850366C0E03355
:1001FC0041F4A4E6B2E00E944F03E3E30E948503BE
:10020C005CC0E03441F4A6E6B2E00E944F03E4E3A4
:10021C000E94850352C0E03541F4A8E6B2E00E948A
:10022C004F03E5E30E94850348C0E03641F4AAE69B
:10023C00B2E00E944F03E6E30E9485033EC0E03724
:10024C0041F4ACE6B2E00E944F03E7E30E94850361
:10025C0034C0E03841F4AEE6B2E00E944F03E8E36C
:10026C000E9485032AC0E03941F4A0E7B2E00E9465
:10027C004F03E9E30E94850320C0E03A41F4A2E772
:10028C00B2E00E944F03E0E30E94850316C0E03BFE
:10029C0059F4A4E7B2E00E944F03EAE20E948503FE
:1002AC00E2E0F0E05F0109C0E03C39F4A6E7B2E01F
:1002BC000E944F03E3E20E94850308950A921A926A
:1002CC00FA926A937A938A939A93AA93BA93EA933B
:1002DC00FA93EFB7EA93E1E0F0E02F01A2E3B0E08C
:1002EC000E946F03E991EFBFF991E991B991A9913E
:1002FC009991899179916991F99019900990189532
:10030C00EA93FA93E1E0F0E0E093C802F093C902BB
:10031C00D89A0FC0EA93FA93E0E0E093C802E09316
:10032C00C902D898E1E0F0E0E093CA02F093CB0266
:10033C005F01F991E9911895EFE0EABBE0EFEBBBB7
:10034C00E0E0E7BBE8BBE4BBE5BBE1BBE2BBEBB782
:10035C00E06EEBBFEFE0E5BFE0E0E4BFE0EEEABF4C
:10036C00A0E10E9420037894E091C802F091C902A8
:10037C00309709F0B0C0992079F40E94E102E0E0D6
:10038C00EA93A0E00E94D002A8E7B2E00E945603D4
:10039C00A8ECB0E00E946F03E1E0F0E0E415F50595
:1003AC0009F099C044245524E9B3E07FE03139F4D5
:1003BC00A8E8B2E00E940F03E1E37E2E5FC0E032BA
:1003CC0039F4AAE8B2E00E940F03E2E37E2E56C095
:1003DC00E03339F4ACE8B2E00E940F03E3E37E2E85
:1003EC004DC0E03439F4AEE8B2E00E940F03E4E310
:1003FC007E2E44C0E03539F4A0E9B2E00E940F0330
:10040C00E5E37E2E3BC0E03639F4A2E9B2E00E946F
:10041C000F03E6E37E2E32C0E03739F4A4E9B2E0F4
:10042C000E940F03E7E37E2E29C0E03839F4A6E9D9
:10043C00B2E00E940F03E8E37E2E20C0E03939F4CD
:10044C00A8E9B2E00E940F03E9E37E2E17C0E03A60
:10045C0039F4AAE9B2E00E940F03E0E37E2E0EC04D
:10046C00E03B31F4EAE27E2EE2E0F0E05F0106C010
:10047C00E03C21F47724E1E0F0E05F01E2E0F0E021
:10048C00EA15FB0511F4992464C0A92DB0E0A05025
:10049C00B0400E9479037E1699F49394A0E1B0E0E9
:1004AC000E947903E91559F40E94E102ACE9B2E02B
:1004BC000E940F03D99A0E945D03D99899240BC00E
:1004CC000E94E102A5EAB2E00E940F03DA9A0E94B0
:1004DC005D03DA989924A091C802B091C9021197D2
:1004EC00B9F50E945D03D89A0E94E102A4E6B0E03F
:1004FC000E946F03E0E0EA93A0E00E94D002ABEA16
:10050C00B2E00E9456030A2C0B2851F4E1E0F0E013
:10051C00E415F50521F44424552453DE639416C0E8
:10052C00662031F00E94E102A9EBB2E00E940F03B9
:10053C007724AA24BB24E62DA0E1B0E00E94850319
:10054C006624A8EBBBE00E946F0301C0DCCFD898F7
:10055C000BCFFFCFAA93E5B3EF70AE2FE881E07F0E
:10056C00EA2BE5BB82E18A95F1F7AA9A82E18A959A
:10057C00F1F7AA9882E18A95F1F789C0AA93A8812C
:10058C00E9DFE881E295E883A881E4DF88EB8A95CE
:10059C00F1F77DC0AA93E881F0E0E453FD4FE081D0
:1005AC00A981AE0FEBDFE981E093D002E881E09303
:1005BC00D10222960895A2E00E946103ACE0DEDF36
:1005CC00A1E00E946103E0E0E093D102E093D0024D
:1005DC000895AA93A881AA3031F0E091D202A0919B
:1005EC00D002AE1760F0E0E0EA93A091D102AF5FC9
:1005FC00A093D102CFDFA881AA3009F448C0E091C2
:10060C00D002EF5FE093D002A89AA881B7DFA89838
:10061C003EC0BA93AA931A93A981BA81ED91A9838A
:10062C00BA831E2FE03019F0A12FD3DFF5CF18813C
:10063C0023960895AA93E4B3E06FE4BBA29AA09A20
:10064C00A19AAA98A898A998E881E093D202E058B8
:10065C00E093CE02E881E054E093CF02A4E1B0E055
:10066C000E946F030E9467030E9467030E94670346
:10067C00A0E270DF84E191E00197F1F7A8E27EDF60
:10068C00A4E07CDFA5E87ADFA6E078DF94DF219692
:10069C0008950E940F03A62DB0E0A050B04008951D
:1006AC000E940F03E0E0EA93A1E00C94D002A0EDCD
:1006BC00B7E00C946F030E94C402A3E0B0E00C946A
:1006CC006F03A0E30E94B00284E191E00197F1F77F
:1006DC000895109639F0A8958DEC9AE00197F1F7F2
:1006EC001197C9F70895E199FECFFF93FFB7F894DE
:1006FC00AEBBBFBBE09AEDB3FFBFFF910895E19B8A
:10070C0002C0A895FCCF9FB7F894AEBBBFBBE09AD4
:10071C008DB3E81719F0EDBBE29AE19A9FBF0895EB
:00000001FF
